S021000041544D454741333238505F49324328545749295F41543234432E7372656368
S11300000C9434000C9451000C9451000C94510045
S11300100C9451000C9451000C9451000C94510018
S11300200C9451000C9451000C9451000C94510008
S11300300C9451000C9451000C9451000C945100F8
S11300400C9451000C9451000C9451000C945100E8
S11300500C9451000C9451000C9451000C945100D8
S11300600C9451000C94510011241FBECFEFD8E022
S1130070DEBFCDBF11E0A0E0B1E0E4EBF1E002C0EF
S113008005900D92A230B107D9F721E0A2E0B1E0CA
S113009001C01D92A330B207E1F70E94B7000C948F
S11300A0D8000C94000088E48093B800ECEBF0E0F6
S11300B0808184608083089584EA8093BC00809169
S11300C0BC008823E4F7089584E98093BC00089574
S11300D08093BB0084E88093BC008091BC0088239B
S11300E0E4F7089584EC8093BC008091BC008823DD
S11300F0E4F78091BB0008951F93CF93DF93C82F3B
S1130100D62F172F0E945C0080EA0E946800812F7E
S11301100E9468008D2F0E9468008C2F0E94680046
S11301200E946400DF91CF911F9108950F931F9354
S1130130CF93DF93182F092FEB010E945C0080EA14
S11301400E946800802F0E946800812F0E9468002E
S11301500E945C0081EA0E9468000E947200888309
S11301600E946400DF91CF911F910F9108950E9426
S113017053002FEF81EE94E0215080409040E1F74E
S113018000C0000061E070E0809100010E947C00EA
S11301902FEF81EE94E0215080409040E1F700C0C1
S11301A0000062E071E081E090E00E949600FFCFE1
S10701B0F894FFCFED
S10501B4410004
S9030000FC
